:020000040800F2
:10000000000C0020150100080B0100080D0100087C
:1000100000000000000000000000000000000000E0
:100020000000000000000000000000000F010008B8
:10003000000000000000000011010008130100088A
:100040000000000000000000000000006501000842
:1000500065010008650100086501000865010008E8
:100060000000000000000000000000000000000090
:100070006501000865010008650100080000000036
:100080000000000065010008000000006501000894
:1000900000000000000000000000000065010008F2
:1000A0000000000065010008000000006501000874
:1000B0000000000000000000000000000000000040
:1000C00010B5064C2378002B07D1054B002B02D02E
:1000D000044800E000BF0123237010BD0000002091
:1000E0000000000010020008044B10B5002B03D0E4
:1000F0000349044800E000BF10BDC04600000000F6
:100100000400002010020008FEE77047FEE7704779
:10011000704770470D4885460D480E490E4A00232A
:1001200002E0D458C4500433C4188C42F9D30B4AAB
:100130000B4C002301E013600432A242FBD300F019
:1001400013F800F041F8FFF7DFFFFEE7000C002096
:100150000000002000000020300200080000002005
:100160001C000020FEE700001049114B4A681B6884
:10017000120C12049BB2134382B04B600D4B0E481D
:100180001B684A681B0403400C480240134380224A
:100190004B600B4B12059A600A4B0193C046019BC2
:1001A0005A1E0192002BF9D102B070470010024094
:1001B0000001FF1F4401FF1F0000FF01FFFF00FEC1
:1001C00000ED00E0C027090070B500260C4C0D4D75
:1001D000641BA410A64209D1002600F019F80A4CAD
:1001E0000A4D641BA410A64205D170BDB300EB58A4
:1001F00098470136EEE7B300EB5898470136F2E72F
:1002000028020008280200082C0200082802000822
:10021000F8B5C046F8BC08BC9E467047F8B5C04665
:08022000F8BC08BC9E467047C3
:04022800E9000008E1
:04022C00C100000805
:0400000508000115D9
:00000001FF
