:020000040800F2
:10000000000C0020750B0008690B00086B0B000842
:1000100000000000000000000000000000000000E0
:100020000000000000000000000000006D0B000850
:1000300000000000000000006F0B0008710B0008BA
:10004000000000000000000000000000C50B0008D8
:10005000C50B0008C50B0008C50B0008C50B000840
:100060000000000000000000000000000000000090
:10007000C50B0008C50B0008C50B000800000000F8
:1000800000000000C50B000800000000C50B0008C0
:10009000000000000000000000000000C50B000888
:1000A00000000000C50B000800000000C50B0008A0
:1000B0000000000000000000000000000000000040
:1000C000002243088B4274D303098B425FD3030A97
:1000D0008B4244D3030B8B4228D3030C8B420DD3AA
:1000E000FF22090212BA030C8B4202D31212090238
:1000F00065D0030B8B4219D300E0090AC30B8B4276
:1001000001D3CB03C01A5241830B8B4201D38B0323
:10011000C01A5241430B8B4201D34B03C01A5241C8
:10012000030B8B4201D30B03C01A5241C30A8B420B
:1001300001D3CB02C01A5241830A8B4201D38B02F6
:10014000C01A5241430A8B4201D34B02C01A52419A
:10015000030A8B4201D30B02C01A5241CDD2C3090C
:100160008B4201D3CB01C01A524183098B4201D388
:100170008B01C01A524143098B4201D34B01C01A73
:10018000524103098B4201D30B01C01A5241C308EB
:100190008B4201D3CB00C01A524183088B4201D35A
:1001A0008B00C01A524143088B4201D34B00C01A46
:1001B0005241411A00D20146524110467047FFE7B2
:1001C00001B5002000F0F0F802BDC0460029F7D0CC
:1001D00076E7704703460B437FD4002243088B42E7
:1001E00074D303098B425FD3030A8B4244D3030BBE
:1001F0008B4228D3030C8B420DD3FF22090212BA83
:10020000030C8B4202D31212090265D0030B8B42FE
:1002100019D300E0090AC30B8B4201D3CB03C01AE8
:100220005241830B8B4201D38B03C01A5241430BC3
:100230008B4201D34B03C01A5241030B8B4201D3B3
:100240000B03C01A5241C30A8B4201D3CB02C01A1E
:100250005241830A8B4201D38B02C01A5241430A96
:100260008B4201D34B02C01A5241030A8B4201D385
:100270000B02C01A5241CDD2C3098B4201D3CB012C
:10028000C01A524183098B4201D38B01C01A5241DB
:1002900043098B4201D34B01C01A524103098B42DF
:1002A00001D30B01C01A5241C3088B4201D3CB00CA
:1002B000C01A524183088B4201D38B00C01A5241AD
:1002C00043088B4201D34B00C01A5241411A00D25D
:1002D00001465241104670475DE0CA0F00D04942C6
:1002E000031000D34042534000229C4603098B4236
:1002F0002DD3030A8B4212D3FC22890112BA030ABE
:100300008B420CD3890192118B4208D3890192113F
:100310008B4204D389013AD0921100E08909C309C4
:100320008B4201D3CB01C01A524183098B4201D3C6
:100330008B01C01A524143098B4201D34B01C01AB1
:10034000524103098B4201D30B01C01A5241C30829
:100350008B4201D3CB00C01A524183088B4201D398
:100360008B00C01A5241D9D243088B4201D34B00B3
:10037000C01A5241411A00D20146634652415B10F5
:10038000104601D34042002B00D5494270476346D6
:100390005B1000D3404201B5002000F005F802BD1B
:1003A0000029F8D016E770477047C04603B471467D
:1003B000490840004900095E49008E4403BC70476B
:1003C00010B5064C2378002B07D1054B002B02D02B
:1003D000044800E000BF0123237010BD6800002026
:1003E00000000000D01C0008044B10B5002B03D007
:1003F0000349044800E000BF10BDC04600000000F3
:100400006C000020D01C000810B5FA218900FFF70D
:1004100057FE0138034B586000229A6005321A607B
:1004200010BDC04610E000E082B0084B1B6801938D
:10043000019B431C00D00130002805D0034B1B68F2
:10044000DB03F9D50138F7E702B0704710E000E0B0
:10045000014B18607047C0460800002070B50028A6
:1004600011DB8308134DC0339B005C5903221040FD
:10047000C000FC3216008640B44389010A40824025
:1004800022435A5170BD0F230340083B9B0806339B
:100490009B00094A944663445C6803221040C000F4
:1004A000FC3215008540AC4389010A40824022435A
:1004B0005A60E7E700E100E000ED00E070B50500FC
:1004C0008020000182421FD08800401882008018DE
:1004D0009900FFF7F5FD06006421FFF7F1FD040127
:1004E000A4B264213000FFF771FE080132306421AC
:1004F000FFF7E6FDF0230340E418A4B20F231840F1
:100500002418A4B2AC6070BD880040188200801826
:100510005900FFF7D5FD06006421FFF7D1FD040166
:10052000A4B264213000FFF751FEC80032306421CC
:10053000FFF7C6FD80B24300F82252001340E418D2
:10054000A4B207230340E418A4B2AC60DBE70000C8
:1005500010B582B00B4A516B012319435163526BA2
:1005600013400193019B084A800081580B680C24BA
:10057000A343083C23430B60835802229A6102B0D4
:1005800010BDC046001002400400002030B583B00A
:10059000002808D1134A546B01231C435463526B47
:1005A00013400193019B104B8000C5582A68032417
:1005B000A2432A60C258D368A343D360012901D063
:1005C00003B030BD094B80201A580A431A505A68AC
:1005D0000A435A600E317B38FFF740FF044B20225C
:1005E0001A60EDE7001002400000002000180240F1
:1005F00000E100E070B584B03D4B1B6898680023B3
:100600000222002100F0ECFB3A4D2B6C8026F60113
:1006100033432B642B6C33400393039BE123364A13
:100620001168364C5B0200222000FFF747FFE368A9
:10063000334A1340E3602369324A13402361E3687D
:10064000314A1340E3606369304A13406361E368F1
:100650000C221343E360E26880239B011343E360B1
:1006600041235B4223606A6B43331A436A636A6BBC
:1006700013400293029B6A6B01231A436A636A6BFD
:1006800013400193019BA023DB051968204801401A
:10069000802212020A431A609968C02212020A4399
:1006A0009A60DA6802401643DE60196A194A1140FE
:1006B000802252050A431A62174B196817480140F5
:1006C000802212010A431A609968C02212010A436B
:1006D0009A60D96801408022D2000A43DA60196A20
:1006E0000F4A1140802252030A431A6204B070BDBF
:1006F00018000020001002400800002000380140CF
:10070000FFEFFFFFFFDFFFFFFFF9FFFFFFFCFFFF32
:10071000FF3FFFFFFFFFFF8F00040050FFF3FFFFCD
:10072000FFFF8FFFFF230340054A5360044B1B6804
:100730005B06FBD5024B412252421A607047C0460D
:100740000038014070B51600002405E04D1C087803
:10075000FFF7E8FF01342900B442F7DB300070BD39
:10076000174B1A6912011209802189050A431A617F
:10077000DA6818218A43DA60DA6808318A43DA6075
:10078000DA6810490A40DA605A6907210A435A6157
:10079000DA680D490A40DA60DA680C490A40DA6022
:1007A000D968802252010A43DA60DA6808490A40AF
:1007B000DA60084A1168C0231B040B4313607047BA
:1007C00000240140FFBFFFFF3FF2FFFFFFDFFFFFFD
:1007D000FFFFFEFF0827014082B00E4B1A6C8021FC
:1007E00009010A431A641B6C0B400193019B0A4BDD
:1007F0000A4A9A62FA221201DA625A6870218A431E
:1008000050390A435A601A681F390A431A6002B005
:100810007047C04600100240002C014070170000D5
:1008200010B5094B9B68DB070DD407498A68074B55
:100830001A40183313438B60034B9B68002BFBDB80
:100840000120FFF7F1FD10BD00240140E8FFFF7F0C
:1008500010B5054A936805490B4001210B4393608D
:100860000120FFF7E1FD10BD00240140E8FFFF7FFC
:1008700010B5174A116880235B000B43136001E039
:10088000012909D0124B1A688023DB00110019409E
:100890001A42F5D00121F3E70D4B9A680D490A4041
:1008A0009A609A6807218A439A60094B9B683822AC
:1008B0001A42FAD1064A936807490B409360074CE5
:1008C0002000FFF7A1FD2000FFF7C2FD10BDC046CC
:1008D00000100240FFF0FFFFFF8FFFFF00366E01A8
:1008E000F0B5D6464F464646C0B586B0894C226C18
:1008F00001231A432264226C13400593059BE36B8A
:10090000802252051343E363E36B13400493049B7B
:10091000FFF7AEFF636B042213436363636B134003
:100920000393039B7C4B19680320014319601968EA
:10093000093001431960636B934363630020FFF741
:1009400007FE00210020FFF721FEFFF753FE236C76
:100950008022520313432364236C13400293029BAF
:10096000FFF7FEFE6D4B1E886D4B1E806D4B1B8886
:100970006D4A13806D4A11886D4A1180C91A6D48FD
:10098000FFF79EFB8146330B5C01E41AA400E418D8
:10099000E400310A0F23194064224A43A4183109A4
:1009A00019408A0052185200A4183340E418230357
:1009B0009846FFF735FFFFF70FFF8AE00138002860
:1009C000FCD15D4A93685D490B4004210B43936061
:1009D000594B1B685B07FBD5574B04221A601F6CF1
:1009E000BFB2002F00D10137534B9A6853490A40D8
:1009F00002210A439A609A6A51490A409A62514810
:100A00000168514A1140802212040A430260802288
:100A100052009A62FFF71CFF4C4B18684C49FFF7D5
:100A20004FFB8300181840000A21FFF749FB00E044
:100A300001380028FCD1404A936840490B4004210A
:100A40000B4393603C4B1B685B07FBD53A4B04227E
:100A50001A60196C9A6839480240022002439A6071
:100A60009A6A3C4802409A6209040C0C2E4D2E886A
:100A7000A61B4B465E43384B9C46664437493000C4
:100A8000FFF7A8FB824635493000FFF789FC0800D4
:100A90006421FFF79FFB060039004046FFF710FB7B
:100AA00003001F4A11882E483A0000F089F9204BB4
:100AB0001A8829882B483604360C019653461B04A5
:100AC0001B0C0093230000F07BF996204000FFF7F9
:100AD000ABFC194A936819490B4002210B43936000
:100AE00018480168184B19408023DB030B4303604F
:100AF00080239B009362FFF7ABFE144B18681449E8
:100B0000FFF7DEFA8300181840000A21FFF7D8FA31
:100B100055E7C04600100240000800502200FF1FA9
:100B2000880000201401FF1F860000201801FF1F0D
:100B300084000020B0710B0000240140E8FFFF7F1B
:100B4000FFFDFFFF08270140FFFF3FFF08000020D7
:100B5000400D0300FFFEFFFFE0930400102700009C
:100B6000E81C0008081D00087047FEE77047704742
:100B7000704700000D48854600F034F80C480D49D8
:100B80000D4A002302E0D458C4500433C4188C42E8
:100B9000F9D30A4A0A4C002301E013600432A2424E
:100BA000FBD300F075FAFFF79BFEFEE7000C002078
:100BB0000000002068000020741D0008680000206C
:100BC000DC010020FEE7000082B0054B43430193A7
:100BD000C046019B5A1E0192002BF9D102B070470A
:100BE000B80B000010B50E494B681B0C1B040D4AD6
:100BF00012681204120C13434B604B680A4A1340EC
:100C00000A4A126812040A48024013434B60094B17
:100C1000802212059A60C820FFF7D6FF10BDC0469B
:100C2000001002400001FF1FFFFF00FE4401FF1FF4
:100C30000000FF0100ED00E0002310B50400036098
:100C40004360836081814366C28103614361836144
:100C5000190008225C3000F0C5F90B4B2462636276
:100C60000A4BA3620A4BE3620A4B23630A4B9C4282
:100C700005D00A4B9C4202D0094B9C4203D1200074
:100C8000583000F029FA10BD4D0F0008750F00080C
:100C9000AD0F0008D90F00088C000020F4000020E0
:100CA0005C01002010B5034A0349044800F06CF8C9
:100CB00010BDC0460C000020891900081C0000204F
:100CC00041680B4B10B50400994201D000F05CFE66
:100CD000A168084B994202D0200000F055FEE1685F
:100CE000054B994202D0200000F04EFE10BDC046D8
:100CF0008C000020F40000205C01002010B5094B9E
:100D0000094A04211A6009480022FFF795FF0122D1
:100D100009210748FFF790FF022212210548FFF73B
:100D20008BFF10BDC4010020A50C00088C00002022
:100D3000F40000205C01002010B5024800F0CDF95D
:100D400010BDC046CD01002010B5024800F0C6F924
:100D500010BDC046CD01002010B50400FFF7ECFF28
:100D6000236A002B02D0FFF7EFFF10BD044B236274
:100D7000044B1B68002BF6D1FFF7C0FFF3E7C0461A
:100D8000C10C0008C4010020F7B514000026009033
:100D90000191A5686768013F04D52468002CF8D14B
:100DA0003000FEBDAB89012B08D90E22AB5E0133AA
:100DB00004D029000098019B984706436835EAE76C
:100DC0000FB407B5054904AB086804CB81680193EB
:100DD00000F0B4FA03B008BC04B0184718000020B3
:100DE000F0B51D00574B85B01E6804000F0000923F
:100DF000002E05D0336A002B02D13000FFF7ACFF84
:100E0000009B022B05D0012B00D997E0002D00DAC2
:100E100094E0636EDB0705D4A3899B0502D4A06D23
:100E200000F05BF92100300000F0AEFD616B00299D
:100E300008D023004433994202D0300000F050F92A
:100E4000002363630023A3616360A3891B0603D5AA
:100E50003000216900F044F9A3893B4A1340A38183
:100E6000009B022B60D003AB2100300002AA00F0EF
:100E7000B7FDA3890343A381002D24D1029D28003F
:100E800000F078F90195071E48D1029B0193AB420F
:100E90003FD101256D420C22A35E02221A43A2819A
:100EA0000022A26022004732226022610122616E8C
:100EB0006261114204D19B0502D4A06D00F00EF9CD
:100EC000280005B0F0BD002FD9D0336A002B02D125
:100ED0003000FFF741FF009B012B03D1A389009A4B
:100EE0001A43A2810C22A35E082219002760276101
:100EF0006561114013421BD0DA0717D500226D42FD
:100F0000A260A561626ED20701D49B0512D50025AF
:100F1000D6E7019800F02EF9071EBAD08023A289E7
:100F2000019D1343A381D0E70025B4E7A560E9E75D
:100F3000A160E7E7A06D00F0D1F8E8E701256D4278
:100F4000BEE7C046180000205CF3FFFF70B50C0040
:100F50000E25495F00F074F8002803DB636D1B1851
:100F6000636570BDA389024A1340A381F9E7C046B7
:100F7000FFEFFFFFF8B51F008B8905000C0016007E
:100F8000DB0505D50E23C95E0022022300F044F8DC
:100F9000A389054A28001340A38132000E23E15E95
:100FA0003B0000F061F8F8BDFFEFFFFF70B50C00EB
:100FB0000E25495F00F030F80C22A35E421C03D1DD
:100FC000044A1340A38170BD802252011343A381C0
:100FD0006065F8E7FFEFFFFF10B50E23C95E00F074
:100FE00009F810BD03008218934200D170471970B0
:100FF0000133F9E7002370B5064D040008002B60AB
:1010000000F030FE431C03D12B68002B00D023607E
:1010100070BDC046C801002070B504000800110072
:101020001A000023054D2B6000F034FE431C03D151
:101030002B68002B00D0236070BDC046C801002083
:1010400070B50400080011001A000023054D2B6044
:1010500000F028FE431C03D12B68002B00D0236036
:1010600070BDC046C801002070B504000800110022
:101070001A000023054D2B60FFF764FB431C03D1CE
:101080002B68002B00D0236070BDC046C801002033
:1010900070B500260C4C0D4D641BA410A64209D15E
:1010A000002600F015FE0A4C0A4D641BA410A6424F
:1010B00005D170BDB300EB5898470136EEE7B30099
:1010C000EB5898470136F2E76C1D00086C1D0008CC
:1010D000701D00086C1D00087047704770470000C5
:1010E00070B505000C1E10D0043C2368002B00DAFC
:1010F000E418280000F0EAF81D4A1368002B05D117
:1011000063601460280000F0E9F870BDA34208D9BC
:10111000206821188B42F3D119685B680918216097
:10112000EEE71A005B68002B01D0A342F9D91168E1
:101130005018A0420BD12068091850181160834242
:10114000E0D118685B68411811605360DAE7A0428B
:1011500002D90C232B60D5E7206821188B4203D1DC
:1011600019685B680918216063605460CAE7C0466B
:10117000D401002010B5034B0100186800F026F8D8
:1011800010BDC0461800002070B50F4E0D0031682C
:101190000400002902D100F047FD30602900200042
:1011A00000F042FD431C03D101256D42280070BDB3
:1011B0000323C51C9D43A842F8D0291A200000F043
:1011C00033FD0130F2D1EFE7D0010020F7B5032263
:1011D000CB1C9343083305001F000C2B34D20C2783
:1011E000B94233D8280000F071F8374E33681C003C
:1011F000002C2FD139002800FFF7C6FF0400431C44
:101200005FD134680094009B002B4AD1002C52D04F
:1012100023682800E3180099019300F005FD019B65
:10122000834248D123682800FF1A3900FFF7ACFF3A
:10123000013040D02368DB19236033685A68002AE4
:1012400033D1009B336019E0002BC9DA0C232B60EB
:101250000020FEBD2168C91B20D40B290AD9E21940
:101260002760A34204D1326063681160536005E0D7
:101270005A60F9E76268A3420ED13260280000F09C
:101280002DF8200007220B30231D9043C21A9842EC
:10129000DFD01B1AA350DCE75A60EFE72300646835
:1012A000A6E7009C63680093ADE71A005B68A34261
:1012B000FBD10023DAE70C2328002B6000F00EF8A6
:1012C000C6E70760DAE7C046D401002010B502483F
:1012D000FFF703FF10BDC046CC01002010B5024847
:1012E000FFF7FCFE10BDC046CC010020936810B58E
:1012F000013B9360002B04DA9469A34207DB0A29BF
:1013000005D01368581C10601970080010BD00F05B
:10131000CAFB0100F9E7F8B506000F001400D51864
:10132000AC4201D1002007E021783A003000FFF7FD
:10133000DDFF0134431CF3D1F8BD0000F0B59FB0D0
:101340000D0016001C000290002804D0036A002B38
:1013500001D1FFF701FD6B6EDB0705D4AB899B055F
:1013600002D4A86DFFF7B9FEAB891B0702D52B6924
:10137000002B13D12900029800F0D8FB00280DD0D3
:101380006B6EDB0703D5012040421FB0F0BDAB8977
:101390009B05F8D4A86DFFF7A1FEF4E700232921EF
:1013A00002AA52180B9320331370013102AA103392
:1013B00052181370059434002378002B01D0252B8C
:1013C00048D1A71BB4420BD03B0032002900029841
:1013D000FFF7A1FF013000D1AEE00B9BDB190B93AF
:1013E0002378002B00D1A7E0012253210023524291
:1013F000079202AA5218661C069309930893137069
:101400001C93594F31780522380000F01FFC741CE2
:10141000069906AB00281FD1CA0604D553272022FF
:1014200002A8C01902700A0704D553272B2202A86C
:10143000C019027032782A2A15D0340000200A27F9
:10144000DA682178661C3039092950D9002811D072
:1014500009920FE00134AFE70123C01B83400B4327
:1014600026000693CDE7059A101D12680590002A04
:1014700037DBDA6022782E2A0CD162782A2A3BD117
:10148000059A0234111D12680591002A01DA012221
:1014900052425A60354E03223000217800F0D6FBCC
:1014A00006AF002806D04023801B8340069A0134F3
:1014B00013430693217806222D48661C397600F0E6
:1014C000C5FB002847D02B4B002B29D10722059BB9
:1014D00007339343083305930B9B03995B180B93D6
:1014E00069E75242DA6002220A430692C2E77A436F
:1014F000340001205218A4E700220A205A6011008B
:10150000130001342278661C303A092A03D9002BD3
:10151000C0D00791BEE74143340001238918F1E7A9
:1015200005AA009239002A00134B029800E000BF80
:101530000390039B0133CFD16B6EDB0705D4AB89DE
:101540009B0502D4A86DFFF7C9FDAB895B0600D5EA
:1015500019E70B9819E705AA009239002A00064BF3
:10156000029800F07BF8E3E7391D00083F1D0008F2
:10157000431D00080000000017130008F7B516000F
:1015800001938A680B690C000090934200DA130003
:101590002200336043321278002A01D001333360D5
:1015A00023689B0602D53368023333602268062322
:1015B00015001D401A4227D0230043331B785A1EC2
:1015C00093412268920630D4220001990098089D28
:1015D0004332A847013025D0062223680025134056
:1015E000042B05D13368E568ED1AEB43DB171D408A
:1015F000A3682269934201DD9B1AED180026B542CB
:1016000020D1002010E00135E36832689B1AAB421C
:10161000D2DD2200012301990098089F1932B847B2
:101620000130F0D101204042FEBD3020E1184331AD
:10163000087021005A1C45310978A2184332023340
:101640001170C1E72200012301990098089F1A3206
:10165000B8470130E6D00136D1E70000F0B58BB0D5
:1016600006920A0043320793059003920A7E0C000B
:10167000109B782A09D8622A0BD8002A00D1BAE038
:101680007A490491582A00D18EE0250042352A700B
:1016900022E0100063381528F7D8FEF787FE160001
:1016A0001F00F6FFF6FFF6FFF6FF1F00F6FFF6FF3E
:1016B000F6FFF6FF9F0036007E00F6FFF6FFB00053
:1016C000F6FF3600F6FFF6FF820025001A68423565
:1016D000111D196013682B7001239EE018680968BA
:1016E000021D0D060BD506681A60002E03DA2D23A5
:1016F000039A764213705D4B0A27049318E006683C
:101700001A604906F1D536B2EFE70868196840C992
:10171000050602D4400600D5B6B21960534B0A271D
:1017200004936F2A00D1023F2300002243331A7032
:101730006368A360002B06DB04212268039D8A43B3
:10174000226033430CD0039D30003900FEF73EFD8C
:10175000049B013D5B5C2B70330006009F42F3D974
:10176000082F09D12368DB0706D5626823699A42EE
:1017700002DC3023013D2B70039B5B1B2361079B25
:10178000210000930598069B09AAFFF7F7FE013098
:1017900048D1012040420BB0F0BD202209680A4325
:1017A0002260782232490491210045310A7019687B
:1017B000226840C9100602D4500600D5B6B219609E
:1017C000D30702D5202313432360002E01D0102716
:1017D000AAE72022236893432360F8E71A680D687C
:1017E000101D4969186013682E0601D5196002E0C2
:1017F0006D06FBD519800023039D2361BFE71A689E
:10180000111D1960156800212800626800F01EFA99
:10181000002801D0401B6060636823610023039AA5
:101820001370ACE72A00236906990598079DA8471D
:101830000130AED023689B0715D4099BE06898421D
:10184000A9DA1800A7E72200012306990598079E48
:101850001932B04701309CD00135E368099A9B1AD0
:10186000AB42F0DCE9E70025F7E7C0464A1D000877
:101870005B1D0008F7B50C228B5E05000C001A07F3
:101880005AD44A68002A02DC0A6C002A4FDDE76A53
:10189000002F4CD0002280212E682A601A004901B6
:1018A0000A400B4234D0626DA3895B0706D563689A
:1018B000D21A636B002B01D0236CD21A00232800AC
:1018C000E76A216AB8470C23E25E431C06D1296807
:1018D0001D292ED82B4BCB40DB072AD50023636074
:1018E00023692360D20405D5431C02D12B68002B49
:1018F00000D16065616B2E60002918D0230044334D
:10190000994202D02800FFF7EBFB002363630EE04F
:1019100001232800216AB8470200431CC4D12B6868
:10192000002BC1D01D2B01D0162B1DD12E60002005
:1019300021E0402313431BE00E69002EF7D00F680F
:101940000E60BA1B019200229B0700D14A69A26077
:10195000019B002BEBDDA36A32001F002800019BD6
:10196000216AB847002807DC4023A28913431BB231
:101970000120A3814042FEBD019B36181B1A019332
:10198000E6E7C046010040200B6970B505000C0079
:10199000002B02D10025280070BD002804D0036A66
:1019A000002B01D1FFF7D8F90C22A35E002BF1D058
:1019B000626ED20704D49B0502D4A06DFFF78DFBA5
:1019C00028002100FFF756FF636E0500DB07E2D415
:1019D000A3899B05DFD4A06DFFF780FBDBE7000048
:1019E000F0B50E001D000E23C95E140097B000294B
:1019F0000CDAB2898023110019401A4214D18023D5
:101A0000DB0000202960236017B0F0BD6A4600F0BB
:101A1000E7F80028EDDBF02301991B021940044B85
:101A2000C9184B425941EAE700214023E9E7C04683
:101A300000E0FFFFF7B502268B8905000C0033425A
:101A400006D0230047332360236101236361F7BD80
:101A50006A4601ABFFF7C4FF009F28003900FFF77B
:101A6000B5FB0C22A35E002806D19A05EFD4032211
:101A700093431E43A681E4E780221343A381019B85
:101A8000206020616761002BE1D028000E23E15E19
:101A900000F0B8F80028DAD00323A2899A43023B69
:101AA0001343A381D3E7F8B506000D001400002806
:101AB00004D0036A002B01D1FFF74EF9A369A3609C
:101AC000A3891B0702D52369002B09D1210030000F
:101AD00000F02CF8002803D001256D422800F8BD45
:101AE00023692068EFB2C01A6369EDB2834205DC56
:101AF00021003000FFF748FF0028EDD1A368013036
:101B0000013BA36023685A1C22601F7063698342F3
:101B100004D0A389DB07E1D50A2DDFD121003000F5
:101B2000FFF732FF0028D9D0D6E700002B4B70B565
:101B3000050018680C00002804D0036A002B01D1AE
:101B4000FFF70AF90C22A35E1A0722D4DA0607D49B
:101B500009222A60373201201343A381404270BD1D
:101B60005A0713D5616B002908D0230044339942EA
:101B700002D02800FFF7B4FA002363632422A3896C
:101B800093430022626022691BB222600822134341
:101B9000A3812269002A07D19A0501D51B0603D526
:101BA00021002800FFF746FF0C23E25E012113000D
:101BB0000B400A420CD00023A36063695B42A3611F
:101BC000002023698342CAD11306C8D54023C2E747
:101BD000910700D46369A360F2E7C04618000020B3
:101BE000002370B5064D0400080011002B6000F0C2
:101BF00041F8431C03D12B68002B00D0236070BD3B
:101C0000C8010020002370B5064D040008002B60B9
:101C100000F038F8431C03D12B68002B00D0236060
:101C200070BDC046C8010020002370B5064D0400F9
:101C300008002B6000F03EF8431C03D12B68002BFA
:101C400000D0236070BDC046C8010020C9B2821810
:101C5000904201D10020704703788B42FBD00130C5
:101C6000F6E7000058220120014B40421A607047FD
:101C7000C801002058220120014B40421A607047E1
:101C8000C80100205822024B00201A607047C0464D
:101C9000C801002058220120014B40421A607047C1
:101CA000C801002058220120014B40421A607047B1
:101CB000C8010020044A03001068002802D0C3189D
:101CC000136070470148FAE7D8010020E0010020C6
:101CD000F8B5C046F8BC08BC9E467047F8B5C0468B
:081CE000F8BC08BC9E467047E9
:101CE800565245465F433D307825303458204144AC
:101CF800433D2575205664643D256C756D760A0054
:101D08005433305F433D30782530345820543130D7
:101D1800355F433D307825303458204144433D25D4
:101D280030345820543D25752E2530327520430A0D
:101D380000232D302B2000686C4C006566674546F3
:101D4800470030313233343536373839414243442D
:101D580045460030313233343536373839616263BD
:041D68006465660048
:041D6C00E90300087F
:041D7000C1030008A3
:101D7400000000500000005000366E01000000001A
:101D8400030000008C0000201C0000200000000064
:101D94008C000020F40000205C0100200000000002
:101DA400000000000000000000000000000000002F
:101DB400000000000000000000000000000000001F
:101DC400000000000000000000000000000000000F
:081DD400000000000000000007
:0400000508000B756F
:00000001FF
